{
  "_format": "hh-sol-artifact-1",
  "contractName": "SecretSpend",
  "sourceName": "contracts/SecretSpend.sol",
  "abi": [
    {
      "inputs": [
        {
          "internalType": "address",
          "name": "_verifier",
          "type": "address"
        }
      ],
      "stateMutability": "nonpayable",
      "type": "constructor"
    },
    {
      "inputs": [],
      "name": "balancesRoot",
      "outputs": [
        {
          "internalType": "bytes32",
          "name": "",
          "type": "bytes32"
        }
      ],
      "stateMutability": "view",
      "type": "function"
    },
    {
      "inputs": [
        {
          "internalType": "bytes32",
          "name": "_balancesRoot",
          "type": "bytes32"
        }
      ],
      "name": "setBalancesRootForDemo",
      "outputs": [],
      "stateMutability": "nonpayable",
      "type": "function"
    },
    {
      "inputs": [
        {
          "components": [
            {
              "internalType": "uint256[8]",
              "name": "proof",
              "type": "uint256[8]"
            },
            {
              "internalType": "uint256[14]",
              "name": "input",
              "type": "uint256[14]"
            }
          ],
          "internalType": "struct ZkProof",
          "name": "proof",
          "type": "tuple"
        }
      ],
      "name": "transferPrivately",
      "outputs": [],
      "stateMutability": "nonpayable",
      "type": "function"
    }
  ],
  "bytecode": "0x608060405234801561001057600080fd5b5060405161047e38038061047e833981810160405281019061003291906100db565b806000806101000a81548173ffffffffffffffffffffffffffffffffffffffff021916908373ffffffffffffffffffffffffffffffffffffffff16021790555050610108565b600080fd5b600073ffffffffffffffffffffffffffffffffffffffff82169050919050565b60006100a88261007d565b9050919050565b6100b88161009d565b81146100c357600080fd5b50565b6000815190506100d5816100af565b92915050565b6000602082840312156100f1576100f0610078565b5b60006100ff848285016100c6565b91505092915050565b610367806101176000396000f3fe608060405234801561001057600080fd5b50600436106100415760003560e01c80634db60c331461004657806384e9d8a614610064578063d8260a3814610080575b600080fd5b61004e61009c565b60405161005b91906101b1565b60405180910390f35b61007e600480360381019061007991906101fd565b6100a2565b005b61009a6004803603810190610095919061024f565b6100ac565b005b60015481565b8060018190555050565b60008054906101000a900473ffffffffffffffffffffffffffffffffffffffff1673ffffffffffffffffffffffffffffffffffffffff16638dce00a88260000183610100016040518363ffffffff1660e01b815260040161010e9291906102a8565b60006040518083038186803b15801561012657600080fd5b505afa15801561013a573d6000803e3d6000fd5b5050505080610100016000600e8110610156576101556102d3565b5b602002013560001b6001541461016f5761016e610302565b5b80610100016001600e8110610187576101866102d3565b5b602002013560001b60018190555050565b6000819050919050565b6101ab81610198565b82525050565b60006020820190506101c660008301846101a2565b92915050565b600080fd5b6101da81610198565b81146101e557600080fd5b50565b6000813590506101f7816101d1565b92915050565b600060208284031215610213576102126101cc565b5b6000610221848285016101e8565b91505092915050565b600080fd5b60006102c082840312156102465761024561022a565b5b81905092915050565b60006102c08284031215610266576102656101cc565b5b60006102748482850161022f565b91505092915050565b82818337505050565b610293610100838361027d565b5050565b6102a46101c0838361027d565b5050565b60006102c0820190506102be6000830185610286565b6102cc610100830184610297565b9392505050565b7f4e487b7100000000000000000000000000000000000000000000000000000000600052603260045260246000fd5b7f4e487b7100000000000000000000000000000000000000000000000000000000600052600160045260246000fdfea26469706673582212202c172c672498b5500e1ca84e51b36dcace7092f6441b08d09c48f45f293a3eb264736f6c63430008130033",
  "linkReferences": {},
  "deployedLinkReferences": {}
}